{
  "_format": "hh-sol-artifact-1",
  "contractName": "BuyMeAChai",
  "sourceName": "contracts/BuyMeAChai.sol",
  "abi": [
    {
      "inputs": [],
      "stateMutability": "nonpayable",
      "type": "constructor"
    },
    {
      "anonymous": false,
      "inputs": [
        {
          "indexed": true,
          "internalType": "address",
          "name": "from",
          "type": "address"
        },
        {
          "indexed": false,
          "internalType": "uint256",
          "name": "timestamp",
          "type": "uint256"
        },
        {
          "indexed": false,
          "internalType": "string",
          "name": "name",
          "type": "string"
        },
        {
          "indexed": false,
          "internalType": "string",
          "name": "message",
          "type": "string"
        }
      ],
      "name": "NewChai",
      "type": "event"
    },
    {
      "inputs": [
        {
          "internalType": "string",
          "name": "_name",
          "type": "string"
        },
        {
          "internalType": "string",
          "name": "_message",
          "type": "string"
        }
      ],
      "name": "buyChai",
      "outputs": [],
      "stateMutability": "payable",
      "type": "function"
    },
    {
      "inputs": [],
      "name": "getAllChai",
      "outputs": [
        {
          "components": [
            {
              "internalType": "address",
              "name": "from",
              "type": "address"
            },
            {
              "internalType": "uint256",
              "name": "timestamp",
              "type": "uint256"
            },
            {
              "internalType": "string",
              "name": "name",
              "type": "string"
            },
            {
              "internalType": "string",
              "name": "message",
              "type": "string"
            }
          ],
          "internalType": "struct BuyMeAChai.Chai[]",
          "name": "",
          "type": "tuple[]"
        }
      ],
      "stateMutability": "view",
      "type": "function"
    },
    {
      "inputs": [],
      "name": "withdraw",
      "outputs": [],
      "stateMutability": "nonpayable",
      "type": "function"
    }
  ],
  "bytecode": "0x608060405234801561001057600080fd5b50336000806101000a81548173ffffffffffffffffffffffffffffffffffffffff021916908373ffffffffffffffffffffffffffffffffffffffff160217905550610aa7806100606000396000f3fe6080604052600436106100345760003560e01c806307825451146100395780633ccfd60b146100645780636a13d8591461007b575b600080fd5b34801561004557600080fd5b5061004e610097565b60405161005b9190610724565b60405180910390f35b34801561007057600080fd5b5061007961027a565b005b6100956004803603810190610090919061088f565b6102da565b005b60606001805480602002602001604051908101604052809291908181526020016000905b8282101561027157838290600052602060002090600402016040518060800160405290816000820160009054906101000a900473ffffffffffffffffffffffffffffffffffffffff1673ffffffffffffffffffffffffffffffffffffffff1673ffffffffffffffffffffffffffffffffffffffff1681526020016001820154815260200160028201805461014e90610936565b80601f016020809104026020016040519081016040528092919081815260200182805461017a90610936565b80156101c75780601f1061019c576101008083540402835291602001916101c7565b820191906000526020600020905b8154815290600101906020018083116101aa57829003601f168201915b505050505081526020016003820180546101e090610936565b80601f016020809104026020016040519081016040528092919081815260200182805461020c90610936565b80156102595780601f1061022e57610100808354040283529160200191610259565b820191906000526020600020905b81548152906001019060200180831161023c57829003601f168201915b505050505081525050815260200190600101906100bb565b50505050905090565b60008054906101000a900473ffffffffffffffffffffffffffffffffffffffff1673ffffffffffffffffffffffffffffffffffffffff166108fc479081150290604051600060405180830381858888f193505050506102d857600080fd5b565b6000341161031d576040517f08c379a0000000000000000000000000000000000000000000000000000000008152600401610314906109c4565b60405180910390fd5b600160405180608001604052803373ffffffffffffffffffffffffffffffffffffffff16815260200142815260200184815260200183815250908060018154018082558091505060019003906000526020600020906004020160009091909190915060008201518160000160006101000a81548173ffffffffffffffffffffffffffffffffffffffff021916908373ffffffffffffffffffffffffffffffffffffffff1602179055506020820151816001015560408201518160020190805190602001906103ec929190610462565b506060820151816003019080519060200190610409929190610462565b5050503373ffffffffffffffffffffffffffffffffffffffff167f8967b4b4432988bef0c86850628d1e370dee3a99604a704ff86f15b88105116742848460405161045693929190610a2c565b60405180910390a25050565b82805461046e90610936565b90600052602060002090601f01602090048101928261049057600085556104d7565b82601f106104a957805160ff19168380011785556104d7565b828001600101855582156104d7579182015b828111156104d65782518255916020019190600101906104bb565b5b5090506104e491906104e8565b5090565b5b808211156105015760008160009055506001016104e9565b5090565b600081519050919050565b600082825260208201905092915050565b6000819050602082019050919050565b600073ffffffffffffffffffffffffffffffffffffffff82169050919050565b600061055c82610531565b9050919050565b61056c81610551565b82525050565b6000819050919050565b61058581610572565b82525050565b600081519050919050565b600082825260208201905092915050565b60005b838110156105c55780820151818401526020810190506105aa565b838111156105d4576000848401525b50505050565b6000601f19601f8301169050919050565b60006105f68261058b565b6106008185610596565b93506106108185602086016105a7565b610619816105da565b840191505092915050565b600060808301600083015161063c6000860182610563565b50602083015161064f602086018261057c565b506040830151848203604086015261066782826105eb565b9150506060830151848203606086015261068182826105eb565b9150508091505092915050565b600061069a8383610624565b905092915050565b6000602082019050919050565b60006106ba82610505565b6106c48185610510565b9350836020820285016106d685610521565b8060005b8581101561071257848403895281516106f3858261068e565b94506106fe836106a2565b925060208a019950506001810190506106da565b50829750879550505050505092915050565b6000602082019050818103600083015261073e81846106af565b905092915050565b6000604051905090565b600080fd5b600080fd5b600080fd5b600080fd5b7f4e487b7100000000000000000000000000000000000000000000000000000000600052604160045260246000fd5b61079c826105da565b810181811067ffffffffffffffff821117156107bb576107ba610764565b5b80604052505050565b60006107ce610746565b90506107da8282610793565b919050565b600067ffffffffffffffff8211156107fa576107f9610764565b5b610803826105da565b9050602081019050919050565b82818337600083830152505050565b600061083261082d846107df565b6107c4565b90508281526020810184848401111561084e5761084d61075f565b5b610859848285610810565b509392505050565b600082601f8301126108765761087561075a565b5b813561088684826020860161081f565b91505092915050565b600080604083850312156108a6576108a5610750565b5b600083013567ffffffffffffffff8111156108c4576108c3610755565b5b6108d085828601610861565b925050602083013567ffffffffffffffff8111156108f1576108f0610755565b5b6108fd85828601610861565b9150509250929050565b7f4e487b7100000000000000000000000000000000000000000000000000000000600052602260045260246000fd5b6000600282049050600182168061094e57607f821691505b60208210810361096157610960610907565b5b50919050565b600082825260208201905092915050565b7f6572726f723a2063616e277420627579206368616920666f7220667265652100600082015250565b60006109ae601f83610967565b91506109b982610978565b602082019050919050565b600060208201905081810360008301526109dd816109a1565b9050919050565b6109ed81610572565b82525050565b60006109fe8261058b565b610a088185610967565b9350610a188185602086016105a7565b610a21816105da565b840191505092915050565b6000606082019050610a4160008301866109e4565b8181036020830152610a5381856109f3565b90508181036040830152610a6781846109f3565b905094935050505056fea2646970667358221220b87e0464394c29f273f35858919b817a6ab08cef7252541eb68b4b678dddabc964736f6c634300080d0033",
  "linkReferences": {},
  "deployedLinkReferences": {}
}